{"abi":[{"type":"constructor","inputs":[{"name":"token_","type":"address","internalType":"address"},{"name":"gateway_","type":"address","internalType":"address"}],"stateMutability":"nonpayable"},{"type":"function","name":"availableBalance","inputs":[],"outputs":[{"name":"","type":"uint256","internalType":"uint256"}],"stateMutability":"view"},{"type":"function","name":"cancelExpiredIntent","inputs":[{"name":"intentId","type":"bytes32","internalType":"bytes32"}],"outputs":[],"stateMutability":"nonpayable"},{"type":"function","name":"cancelExpiredIntents","inputs":[{"name":"intentIds","type":"bytes32[]","internalType":"bytes32[]"}],"outputs":[],"stateMutability":"nonpayable"},{"type":"function","name":"createIntent","inputs":[{"name":"intentId","type":"bytes32","internalType":"bytes32"},{"name":"seller","type":"address","internalType":"address"},{"name":"amount","type":"uint256","internalType":"uint256"},{"name":"deadline","type":"uint256","internalType":"uint256"},{"name":"nullifierHash","type":"bytes32","internalType":"bytes32"},{"name":"intentHash","type":"bytes32","internalType":"bytes32"}],"outputs":[],"stateMutability":"nonpayable"},{"type":"function","name":"createIntent","inputs":[{"name":"intentId","type":"bytes32","internalType":"bytes32"},{"name":"seller","type":"address","internalType":"address"},{"name":"amount","type":"uint256","internalType":"uint256"},{"name":"deadline","type":"uint256","internalType":"uint256"},{"name":"nullifierHash","type":"bytes32","internalType":"bytes32"},{"name":"intentHash","type":"bytes32","internalType":"bytes32"},{"name":"cleanupIntentIds","type":"bytes32[]","internalType":"bytes32[]"}],"outputs":[],"stateMutability":"nonpayable"},{"type":"function","name":"deposit","inputs":[{"name":"amount","type":"uint256","internalType":"uint256"}],"outputs":[],"stateMutability":"nonpayable"},{"type":"function","name":"gateway","inputs":[],"outputs":[{"name":"","type":"address","internalType":"contract IAggregationGateway"}],"stateMutability":"view"},{"type":"function","name":"getIntent","inputs":[{"name":"intentId","type":"bytes32","internalType":"bytes32"}],"outputs":[{"name":"","type":"tuple","internalType":"struct Zkp2pDepositPool.Intent","components":[{"name":"seller","type":"address","internalType":"address"},{"name":"buyer","type":"address","internalType":"address"},{"name":"amount","type":"uint256","internalType":"uint256"},{"name":"deadline","type":"uint256","internalType":"uint256"},{"name":"reserved","type":"bool","internalType":"bool"},{"name":"released","type":"bool","internalType":"bool"},{"name":"cancelled","type":"bool","internalType":"bool"},{"name":"nullifierHash","type":"bytes32","internalType":"bytes32"},{"name":"intentHash","type":"bytes32","internalType":"bytes32"}]}],"stateMutability":"view"},{"type":"function","name":"intents","inputs":[{"name":"","type":"bytes32","internalType":"bytes32"}],"outputs":[{"name":"seller","type":"address","internalType":"address"},{"name":"buyer","type":"address","internalType":"address"},{"name":"amount","type":"uint256","internalType":"uint256"},{"name":"deadline","type":"uint256","internalType":"uint256"},{"name":"reserved","type":"bool","internalType":"bool"},{"name":"released","type":"bool","internalType":"bool"},{"name":"cancelled","type":"bool","internalType":"bool"},{"name":"nullifierHash","type":"bytes32","internalType":"bytes32"},{"name":"intentHash","type":"bytes32","internalType":"bytes32"}],"stateMutability":"view"},{"type":"function","name":"nullifierUsed","inputs":[{"name":"","type":"bytes32","internalType":"bytes32"}],"outputs":[{"name":"","type":"bool","internalType":"bool"}],"stateMutability":"view"},{"type":"function","name":"releaseWithProof","inputs":[{"name":"intentId","type":"bytes32","internalType":"bytes32"},{"name":"nullifierHash","type":"bytes32","internalType":"bytes32"},{"name":"proofIntentHash","type":"bytes32","internalType":"bytes32"},{"name":"domainId","type":"uint256","internalType":"uint256"},{"name":"aggregationId","type":"uint256","internalType":"uint256"},{"name":"leaf","type":"bytes32","internalType":"bytes32"},{"name":"merklePath","type":"bytes32[]","internalType":"bytes32[]"},{"name":"leafCount","type":"uint256","internalType":"uint256"},{"name":"index","type":"uint256","internalType":"uint256"}],"outputs":[],"stateMutability":"nonpayable"},{"type":"function","name":"reservedBalance","inputs":[],"outputs":[{"name":"","type":"uint256","internalType":"uint256"}],"stateMutability":"view"},{"type":"function","name":"sellerDeposits","inputs":[{"name":"","type":"address","internalType":"address"}],"outputs":[{"name":"","type":"uint256","internalType":"uint256"}],"stateMutability":"view"},{"type":"function","name":"sellerReserved","inputs":[{"name":"","type":"address","internalType":"address"}],"outputs":[{"name":"","type":"uint256","internalType":"uint256"}],"stateMutability":"view"},{"type":"function","name":"token","inputs":[],"outputs":[{"name":"","type":"address","internalType":"contract IERC20Minimal"}],"stateMutability":"view"},{"type":"function","name":"totalDeposited","inputs":[],"outputs":[{"name":"","type":"uint256","internalType":"uint256"}],"stateMutability":"view"},{"type":"function","name":"withdraw","inputs":[{"name":"amount","type":"uint256","internalType":"uint256"}],"outputs":[],"stateMutability":"nonpayable"},{"type":"event","name":"Deposited","inputs":[{"name":"seller","type":"address","indexed":true,"internalType":"address"},{"name":"amount","type":"uint256","indexed":false,"internalType":"uint256"}],"anonymous":false},{"type":"event","name":"IntentCancelled","inputs":[{"name":"intentId","type":"bytes32","indexed":true,"internalType":"bytes32"},{"name":"seller","type":"address","indexed":true,"internalType":"address"},{"name":"amount","type":"uint256","indexed":false,"internalType":"uint256"}],"anonymous":false},{"type":"event","name":"IntentReserved","inputs":[{"name":"intentId","type":"bytes32","indexed":true,"internalType":"bytes32"},{"name":"seller","type":"address","indexed":true,"internalType":"address"},{"name":"buyer","type":"address","indexed":true,"internalType":"address"},{"name":"amount","type":"uint256","indexed":false,"internalType":"uint256"},{"name":"deadline","type":"uint256","indexed":false,"internalType":"uint256"},{"name":"nullifierHash","type":"bytes32","indexed":false,"internalType":"bytes32"},{"name":"intentHash","type":"bytes32","indexed":false,"internalType":"bytes32"}],"anonymous":false},{"type":"event","name":"Released","inputs":[{"name":"intentId","type":"bytes32","indexed":true,"internalType":"bytes32"},{"name":"buyer","type":"address","indexed":true,"internalType":"address"},{"name":"amount","type":"uint256","indexed":false,"internalType":"uint256"},{"name":"nullifierHash","type":"bytes32","indexed":false,"internalType":"bytes32"}],"anonymous":false},{"type":"event","name":"Withdrawn","inputs":[{"name":"seller","type":"address","indexed":true,"internalType":"address"},{"name":"amount","type":"uint256","indexed":false,"internalType":"uint256"}],"anonymous":false},{"type":"error","name":"InsufficientAvailableBalance","inputs":[]},{"type":"error","name":"IntentAlreadyCancelled","inputs":[]},{"type":"error","name":"IntentAlreadyExists","inputs":[]},{"type":"error","name":"IntentAlreadyReleased","inputs":[]},{"type":"error","name":"IntentExpired","inputs":[]},{"type":"error","name":"IntentHashMismatch","inputs":[]},{"type":"error","name":"IntentNotExpired","inputs":[]},{"type":"error","name":"IntentNotReserved","inputs":[]},{"type":"error","name":"InvalidAmount","inputs":[]},{"type":"error","name":"InvalidDeadline","inputs":[]},{"type":"error","name":"InvalidSeller","inputs":[]},{"type":"error","name":"NullifierAlreadyUsed","inputs":[]},{"type":"error","name":"NullifierMismatch","inputs":[]},{"type":"error","name":"OnlyIntentBuyer","inputs":[]},{"type":"error","name":"SellerDepositTooLow","inputs":[]},{"type":"error","name":"TransferFailed","inputs":[]},{"type":"error","name":"VerificationFailed","inputs":[]},{"type":"error","name":"ZeroAddress","inputs":[]}],"bytecode":{"object":"0x60c060405234801562000010575f80fd5b5060405162001805380380620018058339810160408190526200003391620000a4565b6001600160a01b03821615806200005157506001600160a01b038116155b15620000705760405163d92e233d60e01b815260040160405180910390fd5b6001600160a01b039182166080521660a052620000da565b80516001600160a01b03811681146200009f575f80fd5b919050565b5f8060408385031215620000b6575f80fd5b620000c18362000088565b9150620000d16020840162000088565b90509250929050565b60805160a0516116ed620001185f395f818161010f0152610a5101525f81816104200152818161054501528181610be60152610d3a01526116ed5ff3fe608060405234801561000f575f80fd5b5060043610610106575f3560e01c80639021578a1161009e578063b6b55f251161006e578063b6b55f2514610300578063f13abcc114610313578063f13c46aa14610326578063fc0c546a1461041b578063ff50abdc14610442575f80fd5b80639021578a1461020e5780639b9a7702146102cf578063a1aabda6146102ee578063ab2f0e51146102f7575f80fd5b80636c773476116100d95780636c773476146101a35780636fdd95f3146101b65780637ecf686d146101c95780638036a5c4146101fb575f80fd5b8063116191b61461010a5780632e1a7d4d1461014e5780634d769bfa14610163578063657dc91814610176575b5f80fd5b6101317f000000000000000000000000000000000000000000000000000000000000000081565b6040516001600160a01b0390911681526020015b60405180910390f35b61016161015c366004611333565b61044a565b005b610161610171366004611333565b610611565b610195610184366004611365565b60036020525f908152604090205481565b604051908152602001610145565b6101616101b13660046113cd565b610787565b6101616101c436600461140c565b6108e6565b6101eb6101d7366004611333565b60066020525f908152604090205460ff1681565b6040519015158152602001610145565b610161610209366004611496565b610cd0565b61027c61021c366004611333565b600560208190525f918252604090912080546001820154600283015460038401546004850154958501546006909501546001600160a01b039485169694909316949193909260ff8083169361010084048216936201000090049091169189565b604080516001600160a01b039a8b1681529990981660208a01529688019590955260608701939093529015156080860152151560a0850152151560c084015260e083015261010082015261012001610145565b6101956102dd366004611365565b60046020525f908152604090205481565b61019560025481565b61019560015481565b61016161030e366004611333565b610cf6565b6101616103213660046114e0565b610e50565b61040e610334366004611333565b60408051610120810182525f80825260208201819052918101829052606081018290526080810182905260a0810182905260c0810182905260e08101829052610100810191909152505f9081526005602081815260409283902083516101208101855281546001600160a01b0390811682526001830154169281019290925260028101549382019390935260038301546060820152600483015460ff808216151560808401526101008083048216151560a08501526201000090920416151560c08301529183015460e08201526006909201549082015290565b604051610145919061155e565b6101317f000000000000000000000000000000000000000000000000000000000000000081565b6101955f5481565b805f0361046a5760405163162908e360e11b815260040160405180910390fd5b80600154101561048d5760405163528ef59f60e11b815260040160405180910390fd5b335f908152600460205260409020546104a7908290611600565b335f9081526003602052604090205410156104d55760405163028e4a4d60e61b815260040160405180910390fd5b335f90815260036020526040812080548392906104f3908490611619565b925050819055508060015f82825461050b9190611619565b92505081905550805f808282546105229190611619565b909155505060405163a9059cbb60e01b8152336004820152602481018290525f907f00000000000000000000000000000000000000000000000000000000000000006001600160a01b03169063a9059cbb906044016020604051808303815f875af1158015610593573d5f803e3d5ffd5b505050506040513d601f19601f820116820180604052508101906105b7919061162c565b9050806105d7576040516312171d8360e31b815260040160405180910390fd5b60405182815233907f7084f5476618d8e60b11ef0d7d3f06914655adb8793e28ff7f018d4c76d505d5906020015b60405180910390a25050565b5f818152600560205260409020600481015460ff166106435760405163675875f760e01b815260040160405180910390fd5b6004810154610100900460ff161561066e57604051635b02b00d60e11b815260040160405180910390fd5b600481015462010000900460ff161561069a57604051631f10cff160e01b815260040160405180910390fd5b806003015442116106be576040516309ffb8fd60e31b815260040160405180910390fd5b60048101805462ff00ff19166201000017905560028082015481549091905f906106e9908490611619565b90915550506002810154600180545f90610704908490611600565b9091555050600281015481546001600160a01b03165f9081526004602052604081208054909190610736908490611619565b9091555050805460028201546040519081526001600160a01b039091169083907fcbf61d8d419107de8b179cae045fc16da88896c5cdc3cba69fde869c26931f739060200160405180910390a35050565b805f5b818110156108e0575f8484838181106107a5576107a561164b565b602090810292909201355f8181526005909352604090922060048101549293509160ff16159050806107e057506004810154610100900460ff165b806107f55750600481015462010000900460ff165b80610804575080600301544211155b156108105750506108d8565b60048101805462ff00ff19166201000017905560028082015481549091905f9061083b908490611619565b90915550506002810154600180545f90610856908490611600565b9091555050600281015481546001600160a01b03165f9081526004602052604081208054909190610888908490611619565b9091555050805460028201546040519081526001600160a01b039091169083907fcbf61d8d419107de8b179cae045fc16da88896c5cdc3cba69fde869c26931f739060200160405180910390a350505b60010161078a565b50505050565b5f8a8152600560205260409020600481015460ff166109185760405163675875f760e01b815260040160405180910390fd5b6004810154610100900460ff161561094357604051635b02b00d60e11b815260040160405180910390fd5b600481015462010000900460ff161561096f57604051631f10cff160e01b815260040160405180910390fd5b806003015442111561099457604051631022c88d60e21b815260040160405180910390fd5b60018101546001600160a01b031633146109c157604051632f62e66760e11b815260040160405180910390fd5b5f8a81526006602052604090205460ff16156109f057604051636569570160e11b815260040160405180910390fd5b89816005015414610a145760405163b9ab99df60e01b815260040160405180910390fd5b88816006015414610a3857604051637e5d179b60e01b815260040160405180910390fd5b6040516353c7cf1b60e11b81525f906001600160a01b037f0000000000000000000000000000000000000000000000000000000000000000169063a78f9e3690610a92908c908c908c908c908c908c908c9060040161165f565b602060405180830381865afa158015610aad573d5f803e3d5ffd5b505050506040513d601f19601f82011682018060405250810190610ad1919061162c565b905080610af15760405163439cc0cd60e01b815260040160405180910390fd5b5f8b8152600660205260408120805460ff1916600117905560048301805461ffff19166101001790556002808401548154909290610b30908490611619565b9091555050600282015482546001600160a01b03165f9081526004602052604081208054909190610b62908490611619565b9091555050600282015482546001600160a01b03165f9081526003602052604081208054909190610b94908490611619565b909155505060028201545f80548190610bae908490611619565b90915550506001820154600283015460405163a9059cbb60e01b81526001600160a01b03928316600482015260248101919091525f917f0000000000000000000000000000000000000000000000000000000000000000169063a9059cbb906044016020604051808303815f875af1158015610c2c573d5f803e3d5ffd5b505050506040513d601f19601f82011682018060405250810190610c50919061162c565b905080610c70576040516312171d8360e31b815260040160405180910390fd5b6001830154600284015460408051918252602082018f90526001600160a01b03909216918f917fb042339dce80243e75bcbfdad88b4329204557a1d4f7ee3d795a9d9e2054ef0e910160405180910390a350505050505050505050505050565b604080515f815260208101909152610ced87878787878787610e9b565b50505050505050565b805f03610d165760405163162908e360e11b815260040160405180910390fd5b6040516323b872dd60e01b8152336004820152306024820152604481018290525f907f00000000000000000000000000000000000000000000000000000000000000006001600160a01b0316906323b872dd906064016020604051808303815f875af1158015610d88573d5f803e3d5ffd5b505050506040513d601f19601f82011682018060405250810190610dac919061162c565b905080610dcc576040516312171d8360e31b815260040160405180910390fd5b335f9081526003602052604081208054849290610dea908490611600565b92505081905550815f80828254610e019190611600565b925050819055508160015f828254610e199190611600565b909155505060405182815233907f2da466a7b24304f47e87fa2e1e5a81b9831ce54fec19055ce277ca2f39ba42c490602001610605565b610e918888888888888888808060200260200160405190810160405280939291908181526020018383602002808284375f92019190915250610e9b92505050565b5050505050505050565b6001600160a01b038616610ec25760405163bab7ca3560e01b815260040160405180910390fd5b845f03610ee25760405163162908e360e11b815260040160405180910390fd5b428411610f0257604051631da7447960e21b815260040160405180910390fd5b80515f5b81811015610f3957610f31838281518110610f2357610f2361164b565b6020026020010151896111f7565b600101610f06565b50856001541015610f5d5760405163528ef59f60e11b815260040160405180910390fd5b6001600160a01b0387165f90815260046020526040902054610f80908790611600565b6001600160a01b0388165f908152600360205260409020541015610fb75760405163028e4a4d60e61b815260040160405180910390fd5b5f88815260056020526040902060018101546001600160a01b031615610ff0576040516302b000c160e21b815260040160405180910390fd5b604051806101200160405280896001600160a01b03168152602001336001600160a01b031681526020018881526020018781526020016001151581526020015f151581526020015f151581526020018681526020018581525060055f8b81526020019081526020015f205f820151815f015f6101000a8154816001600160a01b0302191690836001600160a01b031602179055506020820151816001015f6101000a8154816001600160a01b0302191690836001600160a01b0316021790555060408201518160020155606082015181600301556080820151816004015f6101000a81548160ff02191690831515021790555060a08201518160040160016101000a81548160ff02191690831515021790555060c08201518160040160026101000a81548160ff02191690831515021790555060e0820151816005015561010082015181600601559050508660015f82825461114c9190611619565b925050819055508660025f8282546111649190611600565b90915550506001600160a01b0388165f9081526004602052604081208054899290611190908490611600565b909155505060408051888152602081018890529081018690526060810185905233906001600160a01b038a16908b907f4744295e36cd2bf43ac1235ef653c4d74d962743a61c6a5e7fa1b609d724c0dd9060800160405180910390a4505050505050505050565b5f828152600560205260409020600481015460ff16158061122157506004810154610100900460ff165b806112365750600481015462010000900460ff165b1561124057505050565b80546001600160a01b0383811691161461125957505050565b8060030154421161126957505050565b60048101805462ff00ff19166201000017905560028082015481549091905f90611294908490611619565b90915550506002810154600180545f906112af908490611600565b9091555050600281015481546001600160a01b03165f90815260046020526040812080549091906112e1908490611619565b9091555050805460028201546040519081526001600160a01b039091169084907fcbf61d8d419107de8b179cae045fc16da88896c5cdc3cba69fde869c26931f739060200160405180910390a3505050565b5f60208284031215611343575f80fd5b5035919050565b80356001600160a01b0381168114611360575f80fd5b919050565b5f60208284031215611375575f80fd5b61137e8261134a565b9392505050565b5f8083601f840112611395575f80fd5b50813567ffffffffffffffff8111156113ac575f80fd5b6020830191508360208260051b85010111156113c6575f80fd5b9250929050565b5f80602083850312156113de575f80fd5b823567ffffffffffffffff8111156113f4575f80fd5b61140085828601611385565b90969095509350505050565b5f805f805f805f805f806101208b8d031215611426575f80fd5b8a35995060208b0135985060408b0135975060608b0135965060808b0135955060a08b0135945060c08b013567ffffffffffffffff811115611466575f80fd5b6114728d828e01611385565b9b9e9a9d50989b979a969995989760e0810135966101009091013595509350505050565b5f805f805f8060c087890312156114ab575f80fd5b863595506114bb6020880161134a565b95989597505050506040840135936060810135936080820135935060a0909101359150565b5f805f805f805f8060e0898b0312156114f7575f80fd5b8835975061150760208a0161134a565b965060408901359550606089013594506080890135935060a0890135925060c089013567ffffffffffffffff81111561153e575f80fd5b61154a8b828c01611385565b999c989b5096995094979396929594505050565b81516001600160a01b0390811682526020808401519091169082015260408083015190820152606080830151908201526080808301516101208301916115a79084018215159052565b5060a08301516115bb60a084018215159052565b5060c08301516115cf60c084018215159052565b5060e083015160e083015261010080840151818401525092915050565b634e487b7160e01b5f52601160045260245ffd5b80820180821115611613576116136115ec565b92915050565b81810381811115611613576116136115ec565b5f6020828403121561163c575f80fd5b8151801515811461137e575f80fd5b634e487b7160e01b5f52603260045260245ffd5b87815286602082015285604082015260c060608201528360c08201525f60018060fb1b0385111561168e575f80fd5b8460051b808760e085013760808301949094525060a08101919091520160e0019594505050505056fea2646970667358221220dd260b874fecafc1d2f246bb865d0c795a6e5ff6df5958914c68215f840b136c64736f6c63430008180033","linkReferences":{}},"methodIdentifiers":{"availableBalance()":"ab2f0e51","cancelExpiredIntent(bytes32)":"4d769bfa","cancelExpiredIntents(bytes32[])":"6c773476","createIntent(bytes32,address,uint256,uint256,bytes32,bytes32)":"8036a5c4","createIntent(bytes32,address,uint256,uint256,bytes32,bytes32,bytes32[])":"f13abcc1","deposit(uint256)":"b6b55f25","gateway()":"116191b6","getIntent(bytes32)":"f13c46aa","intents(bytes32)":"9021578a","nullifierUsed(bytes32)":"7ecf686d","releaseWithProof(bytes32,bytes32,bytes32,uint256,uint256,bytes32,bytes32[],uint256,uint256)":"6fdd95f3","reservedBalance()":"a1aabda6","sellerDeposits(address)":"657dc918","sellerReserved(address)":"9b9a7702","token()":"fc0c546a","totalDeposited()":"ff50abdc","withdraw(uint256)":"2e1a7d4d"},"id":19}